:100200000C94D30B0C94FB0B0C94FB0B0C94FB0B7E
:100210000C94FB0B0C94FB0B0C94FA370C94FB0B1B
:100220000C94FB0B0C94FB0B0C94FB0B0C94FB0B36
:100230000C94FB0B0C94FB0B0C94CC350C946F368C
:100240000C94FB0B0C9491380C946B380C94FB0BB6
:100250000C948B370C94FB0B0C94FB0B0C94FB0B4A
:100260000C94B0370C9419370C9445380C941F3803
:100270000C94FB0B0C9441370C94FB0B0C94FB0B74
:100280000C94FB0B0C94FB0B0C94D5370C94663739
:1002900005A84CCDB2D44EB93836A9020C50B9914C
:1002A0008688083CA6AAAA2ABE000000803F00401B
:1002B0007A10F35A00A0724E18090010A5D4E80075
:1002C00000E87648170000E40B54020000CA9A3B8D
:1002D000000000E1F5050000809698000000404213
:1002E0000F000000A08601000000102700000000A1
:1002F000E803000000006400000000000A000000A5
:1003000000000100000000002C76D888DC674F0850
:1003100023DFC1DFAE59E1B1B796E5E3E453C63A56
:10032000E651997696E8E6C28426EB898C9B62EDCD
:10033000407C6FFCEFBC9C9F40F2BAA56FA5F49087
:10034000055A2AF75C936B6CF9676DC11BFCE0E4FE
:100350000D47FEF520E6B500D0ED902E0300943554
:1003600077050080841E080000204E0A000000C8A7
:100370000C333333330F986E12831141EF8D2114F8
:10038000893BE65516CFFEE6DB18D1844B381BF7C8
:100390007C1D901DA4BBE424203284725E22810067
:1003A000C9F124ECA1E53D274300B0005370656519
:1003B00064204F6666736574004175746F205377CF
:1003C00069746368004B6F6E747261737400547269
:1003D000697000475053204B6F6F7264696E61748F
:1003E000656E004C75667466657563687469676BE5
:1003F00065697400496E6E656E0041757373656E54
:100400000054656D7065726174757200426F72643C
:100410007370616E6E756E6720284B4929005361B9
:1004200074656C69746573004C6F6E67697475648C
:1004300065004C617469747564650048C3B668658D
:10044000006B65696E652047505320446174656E8A
:100450002E2E2E00696E69742066696E6973686558
:1004600064007265616420454550524F4D004974E7
:10047000207761732061207761746368646F6720FF
:1004800072657365742E00696E697420496E7075AB
:100490007400696E697420315769726500696E690C
:1004A000742043414E00696E69742054696E794727
:1004B0005053007265616420454550524F4D206392
:1004C0006F6E66696700696E697420446973706C49
:1004D00061790020545249503A20004300B0006B2B
:1004E0006D2F68003A20003A2000203A2000474152
:1004F0004D4D4120772F20444F4753313032004833
:10050000573A20002900323032343034323500205E
:100510002800302E392E310053573A2000204066F3
:10052000697A2D6F2D6D617469632E6E657400207C
:10053000202020536D617274446973706C6179007E
:10054000636C6561723A20004B4559204C4F4E4711
:1005500020707265737365642E2E2E004B455920F2
:10056000707265737365642E2E2E00E00003020323
:1005700004030404060C00FE08FE09FF0143028A7E
:1005800008E9200500A203210641A3E31222079BEC
:10059000BA23B104230B2DAEA732289541A900241C
:1005A0000F559E2B5B2A4AB62551A254B608250E3C
:1005B00045A2675012A59BA428899400260D45A248
:1005C00047AAD42A5192489112270519BB632808DB
:1005D000D39E2B29F5562909D39E232BF552022AA7
:1005E0000A2DAEAB52599A22002B0A2DA62B8C064F
:1005F000298C002C08A29A634814002D058BAE6349
:100600002E0612A363082F0C559AB3166661166660
:100610006108300D45A267C9A42599342D590031D0
:100620000945A22B1A7B1A04320A45A267C9C2AC3B
:10063000E320330C45A267C9C2480DB56401340CF0
:1006400045A22F93925232686136350C45A2E318C9
:100650000E69A8250B00360C45A26709C321C96C99
:10066000C902370A45A263106BC52600380C45A2A3
:1006700067C9B464C96CC902390C45A267C96CC9A1
:10068000105616003A0832A3630887003B09C29A45
:1006900063088744013C07BCA62F6A6C3D081DAE69
:1006A000635007013E08BCA6236C6A033F0B45A2BA
:1006B00067C9C25A1D8A00400E45A267C9942149E4
:1006C00094214C8700410D45A22B4BA2A4A60D43BB
:1006D000A605420D45A26348326D5032DBA00043AF
:1006E0000A45A267C9C46EC902440A45A2634832DA
:1006F000DF0605450B45A2E3180E49581C04460ABF
:1007000045A2E3180E49D808470C45A267C9C4D2D0
:10071000A6250B00480A45A223B30D43E616490A55
:1007200045A26390C29E06014A0A45A2B3A3A6252C
:100730000B004B0D45A223939292A62551250B4CFD
:100740000845A223ECE3204D0C45A2235B964449C7
:1007500034B7004E0B45A2239B9444DADC024F0AC7
:1007600045A267C97C4B1600500C45A26348326D08
:1007700050C24600510A4D9E67C97CA9AC01520C7B
:1007800045A26348326D5032B700530B45A267C98A
:10079000D435D49205540945A26390C23E0155094F
:1007A00045A223F35BB200560C45A223734B4A4982
:1007B000164600570A45A223F39228C92D580B4527
:1007C000A223B325B54A4D0B590A45A223734B6AA0
:1007D00061095A0A45A26310B38EE1205B08529F5B
:1007E00063E917015C0CD59A234CC3344CC3340C19
:1007F0005D08D29E43E997015E081DB62B4B6A0146
:100800005F060E9AE300600692BE230A61092DA2DC
:1008100067D04C8A12620C45A2232C0E49661B1429
:100820000063092DA267C9C47408640A45A2B365B0
:10083000D06CC910650A2DA267C986211D02660AFF
:10084000C4A24B89A6AC1300670C3D9A67D06CC953
:1008500010260B00680A45A2232C0E49E6166908EB
:10086000C3A227975A066A09539A2B973A2D006B11
:100870000B45A2236C4A4A53250B6C08C3A243EADA
:10088000CB006D0C2DA263482A4AA2244A016E09AE
:100890002DA2233169B6006F092DA267C96CC90268
:1008A000700C3D9A634832DBA0842100710A3D9AA6
:1008B00067D06CC9101672092DA2233189450073C7
:1008C000092DA267500F0A007409C4A2272B4D59A5
:1008D0005175092DA22373529400760B2DA223D3B8
:1008E0009252924500770C2DA22349944449942EAC
:1008F00000780A2DA2234B6A955A00790B3D9A2362
:10090000734B863059007A092DA263D0DA06017B39
:100910000ADB9A2B895AB2A82D7C06519FE3217DD0
:100920000BDB9A238BDA92A825027E0615B2C70547
:100930007F0500A203800500A203810500A20382B7
:10094000071A9E275100830B659A4F0ADBB6B093B6
:100950000684081C9EA745490085060DA22329860A
:1009600009B3AA2759A21600870AB3AA2759A26475
:100970004900880693BEA70189114EA2675822A597
:100980009484A192283D2509008A0D55A2A7962D91
:1009900099BA865AB2008B0722A24789028C0F456A
:1009A000A26750A2244A94521225D9108D0500A2A4
:1009B000038E0500A2038F0500A203900500A20389
:1009C00091071AB747490092071AB72751009308B1
:1009D0009CB627515A0094089CB6A7454900950833
:1009E0002DAAE7F0650196058BAE6397060EAEE380
:1009F00000980615BEC70599091EB663482A4B32F2
:100A00009A0B4DA2A796C3837A50009B0822A2237B
:100A10004A14009C0A2DA2A78B322459229D05005E
:100A2000A2039E0500A2039F0C55A2A70E66B6A4C2
:100A3000169600A00500A203A107C1A3231906A2D0
:100A40000D3D9E2B5B2A4A9464431401A30C4DA2D6
:100A500047AA8453D8362800A40B2DA6234BA624DE
:100A60005AB200A50D45A2234B2A83140D525802F9
:100A7000A608519F63888600A7125D9E67C99248A9
:100A8000892A591255A4244B1600A8068BBE2309A7
:100A9000A90D45A2638D144D4B942C9900AA0BBC53
:100AA000AE6788A464478600AB0925A2279292A866
:100AB00001AC071DAA63100BAD060DAE6310AE0DA1
:100AC0003DA6634D24255192495100AF058BBE636D
:100AD000B009A4B64789A44401B10B35A62B8C06F6
:100AE000298C0601B208A3BA434B9201B308ABB6F6
:100AF000434BA405B40714BF675800B50E3D9A23B5
:100B00004AA2244AA264114300B6124DA2675012B1
:100B100025512A4394444994444900B70612AF63CF
:100B200008B8089C9A63488605B907A3BA43AA0C7B
:100B3000BA0BBCAE4789A444878600BB0925A22313
:100B40006A89A404BC0E56A243AD0D49D89444DA78
:100B50009A00BD0D56A243AD0D49D8A284C501BE71
:100B60000F56A2430EA54AA284A524D2D604BF0BD9
:100B700045A22B87B2622D5900C00F55A2270DB395
:100B8000244A6ADA30645A00C10E55A2AF98255142
:100B900052D38621D302C20F55A22B4B72244BA2F3
:100BA000A4360C9916C30D55A2C7AD1225356D1884
:100BB000322DC40F55A2A78E644994D4B461C8B431
:100BC00000C50F55A22B4BB24A94D4B461C8B400EF
:100BD000C60F45A26750A2241A925212255132C75D
:100BE0000B559A67C9C46EC95603C80D55A2278D07
:100BF00086311C92B03808C90C55A2AF348CE190F4
:100C000084C541CA0E55A22B4B92610C87242C0E31
:100C100002CB0C55A2A73C8CE19084C541CC0B556E
:100C2000A2278D0629EC6910CD0B55A2AF3448617F
:100C30004F8300CE0C55A22B4BE2410A3B0D02CF55
:100C40000B55A2A73C48614F8300D01146A267888C
:100C5000B2241BA2244BB2244B8604D10C55A2C74C
:100C6000259B9444DADC02D20B55A227CD96CCB753
:100C70006401D30B55A2AFB664BE250B00D40C554E
:100C8000A22B4BF225F3962C00D50B55A2C769C9B0
:100C90007C4B1600D60B55A2A7BE64BE250B00D711
:100CA0000A2DAA234B6A955A00D80D45A267C9A4FC
:100CB0002599342D5900D90B55A2278D32BF250B0C
:100CC00000DA0A55A2AF94F92D5900DB0B55A22B7F
:100CD0004BE2CCB76401DC0A55A2A79CF92D590060
:100CE000DD0B55A2AF94B925B5B004DE0C45A223A7
:100CF0001C92CC36286108DF0E559E4B8A34298918
:100D000092CC450901E00C4DA22BCDD14133294AAB
:100D100000E10B4DA2AF0E0F9A495102E20C4DA219
:100D20002B4B7274D04C8A12E30B4DA2C71D1D349D
:100D300093A204E40B45A2A78E0E9A495102E50D39
:100D40004DA22B4BB21C193493A204E60B2DA267C3
:100D5000A92843920D01E70B3D9A67C9C47488B274
:100D60000CE80C4DA227CDE1251B867408E90C4D3B
:100D7000A2AF0E2FD930A44300EA0D4DA22B4B7227
:100D800074C986211D02EB0C45A2A78E2ED930A472
:100D90004300EC09CBA223CBA59601ED09CBA22BF6
:100DA000C9A59601EE08CBA2A7596A19EF09C3A2FB
:100DB0002389A59601F00C4DA247532B83664B1651
:100DC00000F10A4DA2C71D4C4C9A2DF20C4DA227E2
:100DD000CDE125B3250B00F30B4DA2AF0E2F992DBE
:100DE0005900F40C4DA22B4B7274C96CC902F50B5F
:100DF0004DA2C71D5D325BB200F60B45A2A78E2E39
:100E0000992D5900F7082DA62B1FF408F80B2DA2D9
:100E1000678996644A1600F90B4DA227CDD1CC49BB
:100E20005102FA0A4DA2AF8E664E8A12FB0C4DA2F9
:100E30002B4B723073529400FC0A45A2A70E664EEB
:100E40008A12FD0D5D9AAF8E666EC910260B00FEEC
:100E50000D559A232C0E49661B943004FF0D559AAC
:100E6000A70E666EC910260B0000000004FFFF00ED
:100E7000001200040404050405060F1A00FB13FB0E
:100E800016FD00000000018B20060010C2002A1A87
:100E9000DDB0C235749890212248A05874ECD08AF5
:100EA000164286081B3A15002B0FDD70C23574AE52
:100EB0001E3C483574AE002C10B676C132A44425D1
:100EC000642621418D18002D083816C3F020012E0C
:100ED0000A5538C231E2C508002F23AF71C13CED7D
:100EE000E0B183C70E1E3B78ECE0B183C70E1E3B1A
:100EF00078ECE0B183C70E1E3B78300030233E1102
:100F0000C2644C0D936123C61D4395480D092344CB
:100F10004C9051940AD9B911C386B051660800317A
:100F2000103D11C2357424B19BCE7FF5E0410232F1
:100F3000173E11C2644C0D936123061A1C3B7428A2
:100F400049FAE583070B331F3E11C2644C0D9361D0
:100F500023061A1C3B929CC19266091B343862D846
:100F60001036CA0C01341E3E11C23894644173C756
:100F7000488C223288CC184263468D79F080E1D8C3
:100F800009536535193E11C2F0DBB18A98B41D3C96
:100F9000765A8306470C1BC246992100361B3E1128
:100FA000C2742A91A2A163153169316EC4407B38A5
:100FB00062D81036CA0C0137103E11C2F001DB991D
:100FC00092A4A763E7330038213E11C2644C0D930D
:100FD0006123065A3882101955A8D4102231D0C284
:100FE00011C386B051660800391B3E11C2644C0D16
:100FF00093612306DAC311E3463461A476E8204501
:10100000A90E013A0ED538C231E2C57820235E8C94
:101010000000000004FFFF0000E0000202030403E0
:101020000404050A00FE06FE07FF01120228076BF2
:1010300020050062032107316333520022079376B3
:10104000935400230A2D66570D550D5501240C4568
:101050005E9B87CA3BA96A4700250B35623754322D
:10106000954A3201260A34621753CC49C514270524
:101070001173232808C35E9BCA76012908435E9337
:10108000CB56092A092C66172B152B002B071B663C
:101090009756022C071A5A9714002D058A6A232E98
:1010A000050963132F0A445A5FE69863CE00300A9D
:1010B0003462A7A21A4926053107B36297646B32DE
:1010C000093462A7628EE508330A3462A7628D6430
:1010D0005200340934621B5535621C350A346233C0
:1010E000F446322900360A3462A7F28A32290037E0
:1010F0000934623372AC4B00380A3462A762525131
:101100002605390A3462A7A24C3B29003A0621631E
:1011100013033B08325A976152003C07AB629BEACB
:10112000023D081C6633321A013E07AB6293AB12D4
:101130003F093462A7629B8A0040093462A7A2BAC1
:10114000D10041093462A7A21C5306420A3462B39B
:10115000E248518E0443093462A7A22E9302440947
:101160003462B3A27324004509346233F4CA7904AB
:101170004609346233F4CA3500470A3462A7A24EE6
:101180003329004809346213E59866004907B362C1
:10119000B3626B4A083462DF9649014B0A3462132A
:1011A00055923295014C08346293BB47004D093487
:1011B0006213C711CD004E09346213979A66004F2F
:1011C000093462A7A2332900500A3462B3A21C2951
:1011D000670051093C5EA7A2CB4601520A3462B3B4
:1011E000A21C29CA00530A3462A762D248260554B9
:1011F00008B362B362170055083462133D93025678
:1012000008346213BD62045709346213CD71C400FF
:10121000580A34621365922ACA005909346213AD20
:10122000984B005A09346233726C8F005B07425F3F
:10123000B37A095C0CC45A9333CA19E58C72005D09
:1012400007C25EA37A0D5E069372D7005F060D5A41
:1012500033046006927613036108246237A25205B4
:10126000620A346293F38A72240063082462A7A29C
:101270004603640934625F8D28D30065082462A7A1
:101280008646036609B3629BD28A1500670A345A00
:1012900037A24C3B29006809346293F38A660069DF
:1012A00008B3629791AC066A08C25A17554B016B96
:1012B00009346293AB2453196C07B36223BB066DE8
:1012C0000925623352A5922A6E082462939229035B
:1012D0006F082462A7A24C0A700A345AB3A21C29D0
:1012E00067007109345A37A24CBB0072082462931C
:1012F000929D017308246237361A097408B3621785
:10130000D38A3975072462132D557608246213ADEC
:1013100018017709256293924AAA0B780824621370
:101320009354317909345A13CDB493027A08246264
:10133000336239027B09CB5A9B6295631D7C06415F
:101340005F73087D0ACB5A93639D6215017E071473
:101350006A9754027F0500620380050062038105DD
:1013600000620382071A5E971400830ACB5A9B62BD
:101370005AB1150184071C5ED7520985060D629388
:101380000A8608AB669756AC008708AB6697565A34
:101390000988069376D700890A35623756DA6BA832
:1013A000058A0C446257C69191463229008B061A71
:1013B0006227038C0934623752B59A038D050062A7
:1013C000038E050062038F0500620390050062032F
:1013D00091071A6FA7120092079A6E97140093074D
:1013E0001C6E97540B94071C6ED7520995082466FF
:1013F000A7C6500A96058A6A2397060D6A33049891
:1014000007147697540299081D6E335452499A0A6C
:101410003C6257663C361A099B071A621315009CFA
:1014200008246237D28A299D050062039E05006266
:10143000039F0A446257A368C55C02A005006203CB
:10144000A1073163934600A20A345E1B551A794501
:1014500000A30A3462A7B2CC712400A4082462134A
:10146000935431A509B36293AA955602A606415F2B
:101470003307A70D445EA7628A29A698625200A886
:10148000058A7623A90A3462A351522B2609AA079A
:10149000AB6AB7921EAB071D62176503AC071466F3
:1014A000337200AD050B6A33AE092C66A35152CBE3
:1014B00000AF058A7623B0069B6ED705B10723627D
:1014C00097561AB2069A721307B3069A72A306B415
:1014D000050A7723B5082C5E937AD900B6093462E1
:1014E00037D252D300B705096B13B806925A3302AC
:1014F000B9069A72A30ABA07AB6AD78D06BB081D54
:1015000062134B9900BC0B3D62A3514C7569A3005B
:10151000BD0B3D62A3514C75556701BE0B3D62A3E7
:10152000515CB9B45100BF0934629BA9D85200C0C4
:101530000B4462975154518E2903C10A44625BAB3C
:1015400028C79401C20A44625B65A8E29832C30BC3
:1015500044629754C62A8E2903C40A44625743152D
:10156000E59832C50A44625BC5A8E29832C60934E0
:101570006237521AAA4BC70A445AA7A22E938E1159
:10158000C80B446297511A7AE53C02C90A44625B6F
:101590000EBD721E01CA0A44625B8DBD721E01CB74
:1015A0000A446257A3A157CE23CC09C36293D38ABE
:1015B000AD01CD09C3629BD28AAD01CE08C362D70B
:1015C0005EB11ACF09C36293F28AAD01D0093462C9
:1015D00027D3EAA500D10A44629754B9D43403D280
:1015E0000B4462975154D1991400D30944625BAB08
:1015F000E84C0AD40B44625B65A8A2991400D50B91
:1016000044629754C62A9A4901D60A446257431540
:101610009D4901D7061B66933AD80A3462A7A21ADD
:10162000492605D90A44629751E9991400DA084419
:1016300062DBF44C0ADB0A44625B65149D4901DC01
:101640000A446257A3E8991400DD0A44625BE36828
:10165000C51C01DE0A346293571C296700DF0A3C6F
:101660005EA7A2EA543500E00A3C629751C6232ADD
:1016700055E1093C625B53232A55E20A3C625B65F3
:1016800038A25205E30A3C629754C6232A55E4095E
:10169000346257C311952AE50A3C625BC538A252F1
:1016A00005E608246237D28A03E709345AA7A2461E
:1016B000B304E80A3C629751C66A6834E9093C629F
:1016C0005B536A6834EA0A3C625B65A8864603EBB2
:1016D000093462574335341AEC09BB62933392D50F
:1016E00000ED08BB625743590DEE08BB62D796D593
:1016F00000EF08B36293B2AC06F00B3C6223358A6C
:1017000023CAA400F10A3C62975486299932F20B4D
:101710003C629751C62ACAA400F30A3C625B532A72
:10172000CAA400F40A3C625B65A8A24C0AF50B3C13
:10173000629754C62ACAA400F60A34625743156554
:101740005200F7082B6297D14609F8092462A7D204
:10175000484901F90A3C62975186D15205FA093C81
:10176000625BE368A902FB093C625B65142D55FCD2
:1017700009346257A368A902FD0B4C5A1F338C66CB
:10178000DA4901FE0B445A93F38A72A49C01FF0BC1
:10179000445A57A368A69D140000000004FFFF00F0
:1017A0000000B738A14E11241FBECFEFCDBFDFE33D
:1017B000DEBF2FE2A4E3B8E201C01D92A636B20755
:1017C000E1F718E2A0E0B8E2E2ECFCEB02C0059021
:1017D0000D92A433B107D9F71BE0C2EDDBE004C0E2
:1017E0002197FE010E940256C13DD107C9F70E9410
:1017F0002C3B0C94225B0C940001662329F06A3088
:1018000019F0862F90E008958FEF9FEF0895AF9223
:10181000BF92CF92DF92EF92FF920F93CF93DF931D
:10182000EC01DA017901942F9770E1E0F0E09F017B
:10183000092E01C0220F0A94EAF7522F6E018AE89E
:10184000C80ED11CF601808140E0823018F4422F8E
:10185000813049F15D01F8EFAF22E8ADF9AD2881A3
:101860003981D90150968C918A9D90018B9D300DC4
:101870001124620F731FDF01A60FB71F01111AC0D9
:10188000EA0EFB1E8C91842B85278D93AE15BF0528
:10189000C9F7DF91CF910F91FF90EF90DF90CF903C
:1018A000BF90AF90089550E0D5CF440F550FE1148D
:1018B000F10479F33C91342B35273C939F5F97706B
:1018C000E1E0EE1AF1089111F0CF2CAD3DADA20F81
:1018D000B31FF6018081823028F4813009F051E095
:1018E00041E0E5CF51E0E3CF80E0089590E080E073
:1018F000089500008093C4088091C30887FFFCCF3F
:101900008091C40808958A579F4FFC018081082E5A
:10191000000C990B01960895CF93DF93EC01680FAB
:10192000791F80E0C617D707A1F0E991E827AE2F0D
:10193000AF70B0E0A35EB74D9C91F0E084E0F59508
:10194000E7958A95E1F7E35FF74DE081892F8E27D0
:10195000E9CFDF91CF9108959B01DC011896ED91BD
:10196000FC9141E067E10994E0EAF8E09185906636
:10197000918792E09093BF2B8093B82B1092B72B56
:10198000089581E08093B72B1092B82B93E0909349
:10199000AA089091AB0891FF0BC01092C52BF0E004
:1019A000E0E009958093C42B85E08093BF2B0895D8
:1019B0001092C62B8093C32B86E0F7CF08958FEF4C
:1019C0009FEF08958FEF9FEF08958091B62B90E0E1
:1019D0009195819591090895CF92DF92EF92FF92B0
:1019E0000F931F93CF93DF937C018A01EB016B016F
:1019F000C40ED51ECC15DD0551F06991D701ED91CE
:101A0000FC910190F081E02DC7010995F3CFC80149
:101A1000DF91CF911F910F91FF90EF90DF90CF90CA
:101A200008952091B52B203440F021E030E0FC01F6
:101A30002283338390E080E008958091B42B8F5F00
:101A40008093B42B8093B52B81E090E00895CF93E1
:101A5000DF9390E0FC01E451F74020812F3F69F0D3
:101A6000FC01EF52F740A08130E2A39FD001112486
:101A7000BC5F613029F411962C93DF91CF910895CA
:101A80008A549740EC01E881EF3F81F0CD01409608
:101A9000E80FF92FF11D9FB7F89412962C938081CF
:101AA000623039F4886080839FBFE7CFF0E0E0E0E8
:101AB000F2CF877FF8CF8B3110F40C94270D089567
:101AC00080913D2E811117C010923E2E10923F2E14
:101AD0001092402E1092412E1092422E1092432EC0
:101AE0001092442E1092452E1092462E1092472EA0
:101AF00081E080933D2E8091E3058C7F90913C2E78
:101B0000892B8093E30591111BC061E084E00E9462
:101B1000270D61E086E00E94270D8091C108846056
:101B20008093C1088091C00881628093C008909121
:101B3000382D8091392D9093C0088093C108089565
:101B4000913059F761E088E00E94270D61E08AE05A
:101B5000E2CF90E0FC01E556F740E081EE2319F179
:101B6000E13021F000F1E630A8F008958A54974062
:101B7000FC012081233008F02F5F3091010A81E0C1
:101B800090E001C0880F2A95EAF78095832380931F
:101B9000010A089580E1E89FF0011124E05AF54F11
:101BA00081818F7E818308950F931F93CF93DF935D
:101BB000082F10E0F801E451F740D081DF3FA1F099
:101BC000C62F8B3110F40E94A90DF801EF52F74097
:101BD000E08180E2E89FF0011124FC5F80818D2389
:101BE00071F0C11106C0D683DF91CF911F910F9183
:101BF0000895C43011F4D783F7CFD583F5CFD8013A
:101C0000AA54B7408C91309771F08F3F61F0709675
:101C1000E80FF11D9FB7F8948081C11107C0877F3D
:101C200080839FBFE1CFF0E0E0E0F4CF8860F8CFA1
:101C30000F931F93CF93082F10E0F801E451F74062
:101C4000C081CF3F89F08B3110F40E94A90DF801BB
:101C5000EF52F740E08180E2E89FF0011124FC5F41
:101C60008085C82381E009F480E0CF911F910F9116
:101C700008958B3110F40C94D40D08958FB7F89417
:101C80002091B02B3091B12B4091B22B5091B32BBE
:101C9000E091AA0AF091AB0A9091A60A90FF08C0C1
:101CA0002F5F3F4F4F4F5F4FE091AA0AF091AB0A71
:101CB0008FBFA8EEB3E00E94525524E0F695E79559
:101CC0002A95E1F76E0F7F1F811D911D08958F9258
:101CD0009F92AF92BF92CF92DF92EF92FF924B0111
:101CE0005C010E943E0E6B017C01A8EEB3E0A501F1
:101CF00094010E945255C60ED71EE81EF91EC61644
:101D0000D706E806F90618F40E943E0EF8CF0E94A6
:101D10003E0E6C157D058E059F05C8F3FF90EF9074
:101D2000DF90CF90BF90AF909F908F9008952FB786
:101D3000F8946091B02B7091B12B8091B22B90915F
:101D4000B32B2FBF0895DB0114964D915C9115972D
:101D50006D917C91DC01ED91FC910280F381E02D8D
:101D60000994EF92FF920F931F93CF93DF938C010F
:101D70007B01D0E0C0E0F701EC0FFD1F649166230A
:101D800061F0D801ED91FC910190F081E02DC80146
:101D90000995892B11F02196EECFCE01DF91CF91DD
:101DA0001F910F91FF90EF900895AF92BF92CF9245
:101DB000DF92EF92FF920F931F93CF93DF936C010B
:101DC0007B018B01040F151FEB015E01AE18BF08EC
:101DD000C017D10759F06991D601ED91FC9101909E
:101DE000F081E02DC6010995892B79F7C501DF91B6
:101DF000CF911F910F91FF90EF90DF90CF90BF9008
:101E0000AF900895EF92FF920F931F93CF93DF93BC
:101E100090E2899FE0011124DC5FE984082F000F24
:101E2000000F000FFF24F39410E08E2D8F2179F026
:101E3000E02FE10FF0E0EE0FFF1FEA58F74D808131
:101E40009181892B21F00190F081E02D09951F5F90
:101E5000FF0C183051F7E986DF91CF911F910F9158
:101E6000FF90EF900895FC01A485B58511968C91A3
:101E7000119781FD0FC09C9186898F5F8F73278991
:101E8000281749F0A689AE0FBF2FB11D5D969C9310
:101E9000868B08958C910895FC01508D418D252FDE
:101EA00030E0842F90E0821B930B541710F0CF96F4
:101EB000089501970895FC0196898789981761F024
:101EC000A789AE0FBF2FB11D5D968C9197899F5F3B
:101ED0009F73978B90E008958FEF9FEF0895FC011B
:101EE00096898789981731F08789E80FF11D858DCC
:101EF00090E008958FEF9FEF0895FC019689278960
:101F0000892F90E0805C9F4F821B91098F739927E6
:101F100008958EEF9BE20E947D0F21E0892B09F44A
:101F200020E0822F08958BE99CE20E947D0F21E042
:101F3000892B09F420E0822F0895CF93DF93EC01E1
:101F4000E881F9810680F781E02D0995EC85FD8512
:101F500086818F738683EC85FD8585818F7585836A
:101F60008F898E8B1D8ADF91CF910895AF92BF929A
:101F7000CF92DF92EF92FF920F931F93CF93DF9355
:101F8000EC016A017B01A22E8D89882339F0E8815A
:101F9000F9810688F789E02DCE0109950C8910E0BA
:101FA000BFB6F89460E070E281EA97E0A70196017D
:101FB0000E94C15569017A018FEFC81AD80AE80A50
:101FC000F80AF694E794D794C794EC85FD8586814A
:101FD0008D7F8683EC85FD85868186831D8AA09111
:101FE00023110A2E000CBB0BA70196010E940F566D
:101FF00020E034E040E050E00E94E355EC85FD85B0
:10200000C20ED31EE41EF51EC086D186EC85FD856A
:10201000A782EC85FD858681806C8683EC85FD85B5
:102020008581806885839091E2058B8980958923DD
:102030009801220F331F020F131FC00FD11F988961
:10204000892B8093E20562E08E850E945B0D61E042
:102050008F850E94390E61E08F850E945B0DBFBEA7
:10206000DF91CF911F910F91FF90EF90DF90CF9074
:10207000BF90AF900895FC01613019F4648B81E04A
:102080000895148A6623D9F380E00895DC015496FC
:102090001C92549754968C9154978230A0F4282F18
:1020A00030E0F901EE0FFF1FE20FF31FEA0FFB1FF5
:1020B0009785961303C09685941749F08F5F5496C1
:1020C0008C935497E7CF54961C9280E0089581E05A
:1020D0000895CF93DF93FC01908D818DC485D585C4
:1020E000981306C08D818F7D8D83DF91CF910895E8
:1020F000A18DAE0FBF2FB11DA35ABF4F2C91818D63
:1021000090E001968F739927818F80E48C83A4855A
:10211000B58512962C93908D818D9813E6CFA4856A
:10212000B58515968C9115978F7D15968C93838D1B
:102130008823D9F2848D80931301138ED6CFDC01CE
:102140001C96ED91FC910FB607FE03C0258125FD7D
:1021500004C0248125FD0C9469100895EF92FF922C
:102160000F931F93CF93DF93EC0181E08D8B988DBC
:10217000898D98131CC0AC85BD8514968C911497DD
:1021800085FF15C012966C93AC85BD8580E41496CE
:102190008C93EC85FD8585818F7D858381E090E042
:1021A000DF91CF911F910F91FF90EF900895809153
:1021B000110180FF08C0809113018C8F8A8D80935C
:1021C000130181E08B8FF62E088D10E00F5F1F4FFB
:1021D0000F731127E02E898D8E1104C0CE010E944D
:1021E0009F10F9CFE88DEC0FFD2FF11DE35AFF4F43
:1021F000F082088FEC85FD8585818062CECFCF93FC
:10220000DF93FC0125892223C9F0EC0180911101A3
:1022100080FF08C080911301848F828D8093130109
:1022200081E0838FEC85FD85858185FD03C08481F8
:1022300086FD04C0CE010E949F10F4CFDF91CF91A4
:10224000089580E090E0892B29F00E94930F81117E
:102250000E94000080E090E0892B29F00E94890F05
:1022600081110E94000080E090E0892B49F080E01D
:1022700090E0892B29F00E94000081110C9400004D
:10228000089581E0089561E00C94390E60E00C94AB
:10229000390E1F93CF93DF93182FC7E7DEE28C81AF
:1022A0000E94461183E00E94790C812F0E94790CD4
:1022B00080E00E94790C182F8C810E944311812F9D
:1022C000DF91CF911F9108951F93CF93DF93182F24
:1022D000C7E7DEE28C810E94461185E00E94790CFE
:1022E0008CE20E94790C812F0E94790C80E00E9480
:1022F000790C8C81DF91CF911F910C944311CF9277
:10230000DF92EF92FF920F931F93CF93DF93EC0135
:10231000E62EF12C81E090E001C0880F6A95EAF783
:10232000182F106880917B2E0E944611C701880FDC
:10233000991F80640E94790C2C8188819981AA81DF
:10234000BB81222309F446C035E1B695A795979540
:1023500087953A95D1F70E94790C88819981AA8155
:10236000BB81AC01BD01EDE076956795579547952A
:10237000EA95D1F76A017B0120EEC222DD24EE242A
:10238000FF24CD01AA27BB2783709927AA27BB2743
:102390008C2988600E94790C89810E94790C88813F
:1023A0000E94790C8F81893008F088E09D8191111D
:1023B00080640E94790C8D81811120C000E08F81A2
:1023C0000817E0F4FE01E00FF11D80850E94790CF2
:1023D0000F5FF5CF23E0B695A795979587952A953A
:1023E000D1F70E94790C88818295880F807E0E94A7
:1023F000790C80E00E94790C80E0D2CF80917B2E16
:102400000E94431180917B2E0E944611812F0E94D1
:10241000790C80917B2EDF91CF911F910F91FF90CE
:10242000EF90DF90CF900C9443110F931F93CF93B5
:10243000DF93082F162FC7E7DEE28C810E9446113A
:1024400082E00E94790C802F0E94790C812F0E94DB
:10245000790C8C81DF91CF911F910F910C944311D6
:10246000DF92EF92FF920F931F93CF93DF937B0145
:102470008C01D42EC7E7DEE28C810E94461182E0F7
:102480000E94790C8D2D0E94790C8E2D0E94790C62
:102490008F2D0E94790C802F0E94790C812F0E9431
:1024A000790C8C81DF91CF911F910F91FF90EF906C
:1024B000DF900C944311CF93DF93EC018C819D81CD
:1024C00024E0880F991F2A95E1F7E881F981E80F48
:1024D000F91F80E1DB0101900D928A95E1F78E8171
:1024E0009F8101978E839F838C819D8101968C8330
:1024F0009D832A813B818217930711F41C821D82E0
:10250000DF91CF910895CF92DF92FF920F931F93A7
:10251000CF93DF93CDB7DEB76097CDBFDEBFF82E88
:10252000082F10E084E00F2C01C0880F0A94EAF70E
:102530000E946411CE0101966C0180E1F6011192B6
:102540008A95E9F78AE0809FF001819FF00D1124C0
:10255000E958F14D23A134A1232BB9F0F89EC00115
:102560001124B6018C56914D0E945B126F2DC6014D
:102570000E947F116096CDBFDEBFDF91CF911F918A
:102580000F91FF90DF90CF900895F801E958F14D39
:1025900081E083AFEFCFCF93DF93EC01AE81BF81BA
:1025A0002A813B8181E0A217B30708F080E0A217DF
:1025B000B30728F54C815D81A40FB51FA217B3079F
:1025C00010F0A21BB30B94E0AA0FBB1F9A95E1F782
:1025D00028813981A20FB31F90E1FB0101900D9278
:1025E0009A95E1F72E813F812F5F3F4F2E833F83E6
:1025F000488559854217530710F428873987DF919A
:10260000CF910895CF93DF93EC018A859B85AC85AC
:10261000BD858E839F83A887B9870E94970E6A83A2
:102620007B838C839D8381E089838883DF91CF9135
:102630000895CF93DF93EC018E819F81A885B985A2
:102640008A839B83AC83BD830E94970E6A877B87B6
:102650008C879D8781E089838883DF91CF9108955E
:10266000DC011A96ED91FC9130E020E00994DC0148
:102670001496ED91FC9130E020E040E060E1099497
:10268000DC011696ED91FC9130E020E040E069E13C
:102690000994DC011696ED91FC9130E020E040E0D9
:1026A00068E109949A01DC011696ED91FC91462FA0
:1026B00067E10994EF92FF920F931F93CF93DF93FB
:1026C0001F92CDB7DEB77C018B01D8016C916731C9
:1026D00029F150F46531A0F40F90DF91CF911F9153
:1026E0000F91FF90EF9008956A3118F16E3FA1F7B6
:1026F000F8014181498369E2C7010E9430130BC090
:10270000F80141814983D7011696ED91FC9130E0A3
:1027100020E0C70109950E5F1F4FD7CFF8018181D7
:102720008983AE014F5F5F4F61E0C7010E94521382
:10273000F2CF0F5F1F4FD7011696ED91FC9130E05D
:1027400020E040E0C7010995C0CF462FDC01169676
:10275000ED91FC9130E020E066E10994462FDC0128
:102760001696ED91FC9130E020E065E10994CF925E
:10277000DF92FF920F931F93CF93DF93EC01142FFF
:1027800069016B3009F461C030F46930B9F06A3026
:1027900019F180E019C06E3009F466C06F3009F499
:1027A00073C06D30B1F7411157C068E776EF0E94F2
:1027B0005A13E881F98182898C8B05C08EEA96EFE5
:1027C000888399831C8A81E0DF91CF911F910F91BB
:1027D000FF90DF90CF900895EA85FB8530E020E000
:1027E00040E068E20995EE81FF8130E020E040E0C2
:1027F00064E1CE01099541E06BE4CE010E94301303
:10280000E881F981448169E2CE010E94301340E001
:102810006BE4CE010E943013E881F981448169E2C2
:10282000CE010E94301341E06BE4CE010E943013D0
:10283000E881F981458169E2CE010E9430136DE89B
:1028400076EFCE010E945A13BECF66E876EF44239E
:10285000C1F36FE776EFF5CF61E776EF0E945A1389
:10286000E881F9818389A8CF0E94491361E8CE01EC
:102870000E94AE13612F66956695CE010E94A51346
:10288000CE010E9440139FCF0E944913F60103819D
:10289000000F000F000F8C89080F602F62956F707A
:1028A0006061CE010E94AE13602F6F70CE010E9456
:1028B000AE13F6016481606BCE010E94AE13F60187
:1028C000F280FF0CFF0CFF0CC080D1802F2D200F59
:1028D0003327331F253831051CF084E8F82EF01A11
:1028E000A6016F2DCE010E9452131150C9F7C8CF17
:1028F000CF93DF931F92CDB7DEB76983BE016F5FC1
:102900007F4F0E94AC0C0F90DF91CF910895462F1E
:10291000DC011896ED91FC9130E020E060E2099432
:10292000EF92FF920F931F93CF93DF938C01C62FEB
:10293000D42F7901673130F46531B8F4643131F066
:1029400080E01BC0673101F16A31D0F7D8011896D9
:10295000ED91FC9197014D2F6C2FC801DF91CF9124
:102960001F910F91FF90EF90099460E00E948714EF
:102970006D2FC8010E94781481E0DF91CF911F91E3
:102980000F91FF90EF90089561E00E948714DECFD1
:10299000FC016623D9F16A30C9F1808D811125C00F
:1029A0006C3F48F085E0808F617070E0628B738BC4
:1029B0002EEF3FEF29C0683F20F084E0808F6370E6
:1029C000F4CF603F20F083E0808F6770EECF603EF1
:1029D00020F082E0808F6F70E8CF262F30E0603CDF
:1029E00098F081E0808F6F71E0CF8150808F2289D5
:1029F000338996E0220F331F9A95E1F76F73262BE8
:102A0000228B338B8111D4CFC90108952FEF3FEF73
:102A1000FBCF0F93FC01E05CFF4F0190F081E02DB4
:102A20004E1B5F0BDC01D496ED91FC9109950F9143
:102A30000895CF93DF93FC01A081B18182AD90E036
:102A40009C0143E0220F331F4A95E1F726AF37AFD1
:102A500050962C91509748E0249F9001112424AF68
:102A600035AF23AD30E0B90153E0660F771F5A95BB
:102A7000E1F7EF01C05CDF4F6883798351964C9199
:102A80005197E901C80FD91F50E04C175D0718F4A2
:102A9000CA01821B930BEF01CE5BDF4F6883798302
:102AA000229623E0880F991F2A95E1F7860F971F3A
:102AB00088839983229654968D919C91559788830B
:102AC0009983E85BFF4F56968D919C91808391830B
:102AD000DF91CF9108950F931F93FC01E25BFF4FAD
:102AE0000190F081E02DDC01A05BBF4F0D90BC9107
:102AF000A02D4A175B0740F4E017F10748F00417D0
:102B0000150730F080E019C0E017F107C0F3FACFE5
:102B1000FC01E65BFF4F40815181845B9F4FFC01CC
:102B2000808191816817790758F481E04217530733
:102B300020F081E02617370728F71F910F9108959D
:102B400042175307B0F3DECF2F923F924F925F921E
:102B50006F927F928F929F92AF92BF92CF92DF92AD
:102B6000EF92FF920F931F93CF93DF93CDB7DEB712
:102B70002A97CDBFDEBF89879A87865B9F4F89835F
:102B80009A83FC0110821182E985FA85EA5BFF4F86
:102B90004080518029853A85245B3F4F2B833C83BD
:102BA000F90140825182E985FA85EE5BFF4F208072
:102BB000318029853A85225B3F4F2D833E83F90181
:102BC00020823182E985FA85EC5BFF4F608071805D
:102BD00029853A85205B3F4F2F833887F901608232
:102BE0007182E985FA85E85AFF4FE080F180E98536
:102BF000FA85EC5AFF4FA080B180E985FA85EA5A40
:102C0000FF4FC080D180E985FA85EE5AFF4F808062
:102C1000918087019501A601B40189859A850E945A
:102C20006B1529853A852C573F4F29873A878111A3
:102C300018C0F90110822A96CDBFDEBFDF91CF9177
:102C40001F910F91FF90EF90DF90CF90BF90AF90CA
:102C50009F908F907F906F905F904F903F902F90BC
:102C6000089581E0E985FA8580838114910421F03B
:102C7000E981FA8180829182A414B50420F4EB8169
:102C8000FC81A082B1822C143D0420F4ED81FE81F0
:102C9000C082D182E614F70470F6EF81F885E082F5
:102CA000F182C9CF0F93CF93DF93E02FDC01AC57B4
:102CB000BF4FFC91FF2309F460C02115310509F4D1
:102CC0005CC02230310538F0023009F04AC06F5F35
:102CD0007F4F621B730B0E2F0170E0FD52C0FC0191
:102CE000E25BFF4F0190F081E02D4E175F0708F483
:102CF00044C0FC01E05BFF4F0190F081E02D4E17D6
:102D00005F07D8F5FC01E45BFF4F0190F081E02DF7
:102D1000DC01A65BBF4F0D90BC91A02D260F371F85
:102D20002617370738F56E177F0718F59F012150D2
:102D30003109A217B30708F56A177B0708F4BD012C
:102D40002E173F0708F4F901E61BF70BEC01AEA9BB
:102D5000BFA914960D90BC91A02D9F01FD0109956E
:102D60000CC0033009F0B7CF4F5F5F4F421B530BCE
:102D7000B2CFBD016E177F07E0F2DF91CF910F91C7
:102D80000895FC01E65BFF4F0190F081E02D6E1786
:102D90007F0798F3FC01E45BFF4F0190F081E02D89
:102DA0006E177F0750F7FC01E05BFF4F0190F08149
:102DB000E02DDC01A25BBF4F0D90BC91A02D240F34
:102DC000351F24173507A8F44E175F0788F49F01B5
:102DD00021503109A217B30780F64A175B0708F4A0
:102DE000AD012E173F0708F4F901E41BF50BAECF38
:102DF000AD014E175F0708F6EDCF213069F038F0CE
:102E0000223079F0840F911D47FD9A950895860F21
:102E1000911D67FD9A950895841B910947FD93952F
:102E20000895861B910967FD93950895213069F0F7
:102E300038F0223079F0861B910967FD939508954B
:102E4000840F911D47FD9A950895860F911D67FD8A
:102E50009A950895841B910947FD939508953F9293
:102E60004F925F926F927F928F929F92AF92BF929A
:102E7000CF92DF92EF92FF920F931F93CF93DF9346
:102E80007C01162F442EEC01C25ADF4F5E806F800A
:102E90006C018AE8C80ED11C78847518312E711621
:102EA00008F4372C8C809D800E85202F462D652DB3
:102EB0008A819B810E94FD165C01202F462D652D85
:102EC000C4010E941617AC01442079F08C85F601EC
:102ED0008083232D30E0B501C7010E9452161715DB
:102EE00048F017196394512CD7CF8B858111F7CFF8
:102EF0008D85EDCF150D1E836F82DF91CF911F91D0
:102F00000F91FF90EF90DF90CF90BF90AF909F9088
:102F10008F907F906F905F904F903F900895DC016D
:102F20001A964C911A97ED91FC911197249130E0EB
:102F3000042E02C0359527950A94E2F7842F860F58
:102F4000883068F03196ED93FC931197E49198E006
:102F5000941B01C0EE0F9A95EAF72E2B88501A9613
:102F60008C938FEF9FEF01C0880F6A95EAF78095E9
:102F700082230895FC01E60FF11D849190E0982FC3
:102F800088273196E4918E0F911D0895CF93DF939A
:102F90002091002E3091012E2817390709F490C096
:102FA000EC018093002E9093012EFC01849180937C
:102FB000132E3196E491E093142EFE013296E491A3
:102FC000E093152EFE013396E491E093162EFE0158
:102FD0003496E491E093172EFE013596E491E09348
:102FE000182EFE013696E491E093192EFE013796D5
:102FF000E491E0931A2EFE013896E491E0931B2EA3
:10300000FE013996E491E0931C2EFE013A96E4917C
:10301000E0931D2EFE013B96E491E0931E2EFE01EF
:103020003C96E491E0931F2EFE013D96E491E093DF
:10303000202EFE013E96E491E093212EFE013F9664
:10304000E491E093222EFE017096E491E093232E0A
:1030500061E1CE010E94BA178093242E9093252E11
:1030600063E1CE010E94BA178093262E9093272EFB
:1030700065E1CE010E94BA178093282E9093292EE5
:103080008091002E9091012E892BD1F08091202EDD
:1030900080932C2E4091212E40932D2E90912B2EFB
:1030A000992371F0913079F49091222E891714F4BC
:1030B00090932C2E8091232E841714F480932D2E20
:1030C000DF91CF91089530911D2E20911F2E082E53
:1030D000000C990B622F022E000C770B630F711DF1
:1030E00037FD7A95861797071CF4320F30932C2EF4
:1030F000241734F720932D2EE3CFCF93DF93EC01E9
:103100006BAFEEA9FFA90190F081E02D0995EEA922
:10311000FFA90280F381E02DCE01DF91CF910994C8
:10312000AF92BF92CF92DF92EF92FF920F931F93D5
:10313000CF93DF93CDB7DEB72597CDBFDEBF8C0130
:10314000DC01DA96AC90DA97DB96EC90DB97ED91A8
:10315000FC91B188FE2CD12CC12CD801ED91FC91B1
:1031600011978089D8962D913C911C82FD828B838A
:10317000B8E08B9FC00111248C9DA0018D9D500D46
:103180009C9D500D1124240F351F29833A83D801AB
:103190001496ED91FC919E012F5F3F4F41E06FE04F
:1031A000C8010995F3948F2D8E198A1528F4BFEF65
:1031B000CB1ADB0AFB1488F22596CDBFDEBFDF9168
:1031C000CF911F910F91FF90EF90DF90CF90BF9024
:1031D000AF9008950F931F93CF93DF938C01C62F69
:1031E000642FCC3200F5CA3208F044C0C83289F1ED
:1031F000C93209F445C080E0C034E8F1CF73F8016A
:10320000EC0FF11D868D8F3FA9F1C031F8F08B31A5
:1032100008F04EC00E94180E91E0811101C090E0AC
:10322000F801918F27C0CD3289F128F384EB8C0F00
:10323000823008F7CF73C00FD12FD11D8E8D411171
:1032400033C061E00E945B0D60E08E8D0E94390EFC
:1032500011C0025E1F4FD0E0F80181918F018F3FB6
:1032600031F061E0D03108F062E00E945B0DDF5F79
:10327000D63191F781E0DF91CF911F910F910895A1
:1032800070E090E080E00E94670EF4CF85E090E06F
:10329000433010F082E090E0880F991F880F991F4B
:1032A00005970197F1F7E6CF62E00E945B0DE2CF50
:1032B00080E0B2CF8F929F92AF92BF92CF92DF9277
:1032C000EF92FF920F931F93CF93DF93FC018681C0
:1032D000882319F081FF0EC07894DF91CF911F9160
:1032E0000F91FF90EF90DF90CF90BF90AF909F90A5
:1032F0008F90089580FFF1CF80849184A284B3845D
:10330000C12CD12C760110E09401A501B601C701B2
:10331000A0E00E94C75699F1217030E040E050E0F3
:1033200060E070E080E090E00E94C756D9F0D0E005
:10333000C0E0103370F4C12FC695C695C69580E2E3
:10334000C89FE0011124C05FDB4F812F8770C80F39
:10335000D11DCF01810F911DDC0150968C91988178
:10336000892B88839401A501B601C70101E00E9461
:10337000A35649015A016B017C011F5FC5CF8484AC
:103380009584A684B784C12CD12C760110E29401D7
:10339000A501B601C701A0E00E94C75609F49DCF60
:1033A000217030E040E050E060E070E080E090E0CC
:1033B0000E94C756D9F0D0E0C0E0103370F4C12F9E
:1033C000C695C695C695B0E2CB9FE0011124C05FBB
:1033D000DB4F812F8770C80FD11DCF01810F911D49
:1033E000DC0150968C919881892B88839401A501EA
:1033F000B601C70101E00E94A35649015A016B01C1
:103400007C011F5FC4CF8F929F92AF92BF92CF92E9
:10341000DF92EF92FF920F931F93CF93DF93FC0104
:10342000C62F172F8681882319F081FF12C0F894C8
:10343000C093C0081093C108DF91CF911F910F91E5
:10344000FF90EF90DF90CF90BF90AF909F908F90C4
:10345000089580FFEDCF80849184A284B384C12C31
:10346000D12C7601D0E09401A501B601C701A0E0FE
:103470000E94C756B1F1217030E040E050E060E0BA
:1034800070E080E090E00E94C756F1F090E080E0AC
:10349000D03370F48D2F86958695869520E2829F95
:1034A000C0011124805F9B4F2D2F2770820F911D2B
:1034B000DC014C919F012D0F311DD90150964C9389
:1034C000DC012C91287F2C939401A501B601C70142
:1034D00001E00E94A35649015A016B017C01DF5FA4
:1034E000C2CF84849584A684B784C12CD12C760164
:1034F000D0E29401A501B601C701A0E00E94C75621
:1035000009F496CF217030E040E050E060E070E0D8
:1035100080E090E00E94C756F1F090E080E0D03368
:1035200070F48D2F869586958695B0E28B9FC001AD
:103530001124805F9B4F2D2F2770820F911DDC017E
:103540004C919F012D0F311DD90150964C93DC01F8
:103550002C91287F2C939401A501B601C70101E0AD
:103560000E94A35649015A016B017C01DF5FC1CF64
:10357000FC0180819181FC01FF2790FD06C080E065
:1035800094E1E82BF92B8081089580E093E1F9CF55
:10359000EF92FF920F931F93CF93DF9300D0CDB79D
:1035A000DEB70AEF1BE28A5F9B427C01C701800FF6
:1035B000911F89839A83CE0101960E94B81AF8015F
:1035C00081938F01FBE20E3F1F0781F78AEF9BE299
:1035D0000F900F90DF91CF911F910F91FF90EF907F
:1035E00008950F931F93CF93DF9300D0CDB7DEB72D
:1035F0008B0189839A83CE0101960E94B81AF80143
:103600008083C8010F900F90DF91CF911F910F9190
:103610000895FC01FF2790FD12C080E094E1E82BA3
:10362000F92B60838FB7F8949DE923E094BF209332
:1036300000108FBF8091021081FDFCCF089580E0C3
:1036400093E1EDCFDF92EF92FF920F931F93CF9311
:10365000DF9300D0CDB7DEB77C018B0189839A83DD
:10366000FB01D080CE0101960E94B81AD81621F035
:103670006D2DC7010E94091BC8010F900F90DF91AB
:10368000CF911F910F91FF90EF90DF90089562E02E
:1036900078E281E190E00E94221B6EEA7BE282E107
:1036A00090E00E94221B61E57BE283E190E00C94B4
:1036B000221B8F929F92BF92CF92DF92EF92FF9246
:1036C0000F931F93CF93DF9300D0CDB7DEB78C015C
:1036D0006B017B014C0184E0880E911C09831A83E5
:1036E000F701B1907F01CE0101960E94B81AB81679
:1036F00021F06B2DC8010E94091B0F5F1F4F081599
:10370000190561F7C6010F900F90DF91CF911F91BE
:103710000F91FF90EF90DF90CF90BF909F908F9090
:1037200008950895DC019896ED91FC9199979796EC
:103730008C91672B19F08583818308958683FCCF54
:10374000DC019896ED91FC91999797968C91672B57
:1037500011F08583089586830895DC019896ED9194
:10376000FC91999797968C9182830895FC01A0A56E
:10377000B1A518969C9187A1982321E030E011F41F
:1037800030E020E0C9010895DC01ED91FC91008852
:10379000F189E02D09941F93CF93DF93EC01162F4D
:1037A000662359F061E070E00E94C41B1EA390E004
:1037B00080E0DF91CF911F910895E881F981048421
:1037C000F585E02D0995F2CFAF92BF92CF92DF92AF
:1037D000EF92FF920F931F93CF93DF936C01042F0F
:1037E000D0E0C0E010E0AA24A394B12CD601ED9162
:1037F000FC910680F781E02D002321F041E0C730E5
:10380000D10509F040E0E62EF12C617070E0C601B0
:103810000995892B39F0C5010C2E01C0880F0A9437
:10382000EAF7182BB701759567952196C830D10531
:10383000E9F6812FDF91CF911F910F91FF90EF90CB
:10384000DF90CF90BF90AF900895CF92DF92EF922C
:10385000FF920F931F93CF93DF938C016B01DC01D9
:10386000ED91FC910480F581E02D09957C01892B77
:1038700089F440E065E5C8010E94E41BE601B8E078
:10388000CB0ED11C699140E0C8010E94E41BCC150D
:10389000DD05C1F7C701DF91CF911F910F91FF9017
:1038A000EF90DF90CF900895CF92DF92EF92FF924A
:1038B000CF93DF93EC01C880D980EA80FB80C114EC
:1038C000D104E104F10441F40E94970E68837983E6
:1038D0008A839B8380E012C0C40ED51EE61EF71EAD
:1038E0000E94970EC616D706E806F90670F40E94E5
:1038F000970E688379838A839B8381E0DF91CF91E0
:10390000FF90EF90DF90CF900895C880D980EA8033
:10391000FB800E94970E6C157D058E059F05D0F6E5
:10392000E6CF0B9761E474E08E309105A8F4FC01BA
:10393000E456F34E0C940256AA1CB01CB31CB61CE1
:10394000BC1CBF1CC21CC51CC81CCB1CB91CCE1C7B
:10395000D11CD41C6BE374E082EA9DE20C94B10E9E
:1039600062E374E0F9CF68E274E0F6CF6EE174E0F0
:10397000F3CF6CE074E0F0CF61E074E0EDCF6AEF7C
:1039800073E0EACF64EF73E0E7CF63EE73E0E4CF78
:1039900063ED73E0E1CF6EEC73E0DECF65EC73E0D6
:1039A000DBCF69EB73E0D8CF6CEA73E0D5CF8091C1
:1039B0000128811116C0E091AA2DF091AB2D30E0C5
:1039C00020E040E06BE086EA9DE2099586EA9DE210
:1039D0000E94901886EA9DE20E94371381E080934E
:1039E00001280C94970ECF92DF92EF92FF920F93E3
:1039F0001F93CF93DF936C01EB017B01E40EF51E67
:103A000010E000E0CE15DF0561F06991D601ED917F
:103A1000FC910190F081E02DC6010995080F191F56
:103A2000F1CFC801DF91CF911F910F91FF90EF90DF
:103A3000DF90CF9008952F923F924F925F926F92B6
:103A40007F928F929F92AF92BF92CF92DF92EF922E
:103A5000FF920F931F93CF93DF93CDB7DEB72897D5
:103A6000CDBFDEBF7C016C0124E0C20ED11CFC0185
:103A7000E057FF4F0190F081E02DC60109958C01C0
:103A80008E3F9F4F08F061C0370184E9680E711CBA
:103A9000F3010190F081E02DEC83FD835701F2E901
:103AA000AF0EB11CF50180809180970120593F4FE6
:103AB0002A833B83F9018081813009F46DC008F4C9
:103AC0005CC0823009F473C0833009F47FC0F70111
:103AD000EC59FF4F8082918232962C813D81208368
:103AE000318338978081918147968C839D830F3FE6
:103AF000110511F008F01DC1B6960136110530F41C
:103B00000134110558F0F701EE57FF4F8081918184
:103B10002C813D81280F391F2C833D838C819D8111
:103B20000196FC01249121115CC090E080E0EA81C3
:103B3000FB812081213009F4BEC108F4B4C12230D8
:103B400009F4BBC1233009F4C0C181E090E028969C
:103B5000CDBFDEBFDF91CF911F910F91FF90EF900E
:103B6000DF90CF90BF90AF909F908F907F906F909D
:103B70005F904F903F902F900895F701E05AFF4FCC
:103B80000190F081E02DC60109952C813D81280F1F
:103B9000391F2C833D839BCFF701E05AFF4F0190E3
:103BA000F081E02DC6010995881A990A90CFF70196
:103BB000E05AFF4F0190F081E02DC6010995EC819C
:103BC000FD81E81BF90BEC83FD8381CFF701E05AFF
:103BD000FF4F0190F081E02DC6010995880E991ED6
:103BE00076CFEC81FD8124912017110609F09AC04F
:103BF000CF010296009709F498CFF701EE59FF4FD5
:103C0000EF83F887808391831286739660818F811A
:103C100098850E948F17EF81F8858087F701EA5811
:103C2000FF4F60818F8198850E948F17582EEF81FA
:103C3000F8858187970122573F4F2C833D83F901F7
:103C40009081EF81F885948781E0911180E0EF8188
:103C5000F8858587F701E958FF4F8080682D8F81AF
:103C600098850E948F17382EF701E858FF4F208063
:103C7000622D8F8198850E948F17982EF701E75843
:103C8000FF4F1081612F8F8198850E948F179FEFC2
:103C9000910F01E010E0980101C0220F9A95EAF718
:103CA000821B8E83EF81F885408414140CF0C4C00D
:103CB0008A94C80101C0880F8A94EAF7381AF685F9
:103CC000F983950C2A94C80101C0880F2A94EAF759
:103CD000282E29182F2F422D632DEF81F885828100
:103CE00093810E94FD164C01EF81F88582839383B6
:103CF0002981422D632D848195810E941617EF81C1
:103D0000F88584839583F981F13009F49AC008F429
:103D10004EC0F23009F4A4C0F33009F4B5C0BC01C0
:103D200094014FC0FC0184912C813D81280F311DED
:103D3000F3CEF701EA57FF4F80819181EC81FD813D
:103D4000E80FF91FEC83FD834F0160E0C4010E947E
:103D5000BA172C813D81280F391F2C833D8362E0E7
:103D6000C4010E94BA1734E0830E911C801791079A
:103D700060F3EC81FD81849190E0982F8827319643
:103D8000E4918E2B009709F4D0CE0817190721F47F
:103D90008C819D8103962ECFEC81FD813296E4913A
:103DA0002C813D812E0F311D2C833D83E2CF940168
:103DB000240D311D47FC3A95BC01650D711D57FC62
:103DC0007A958B01AC01B401C6010E946B15882362
:103DD00099F1EF81F885168217824701F3E78F0E7C
:103DE000911C24E7E20EF11CF40160818F8198851B
:103DF0000E948F17082FF70160818F8198850E949C
:103E00008F17182F40E0602FC6010E942F1741E046
:103E1000612FC6010E942F1761E08F8198850E9453
:103E20008F178111EFCFEF81F88587818515E4F237
:103E30008485EC81FD818083FE818F2FFF0F990B9C
:103E400076CE0519110957FC139594012F5F3F4F4A
:103E5000BC01640D711D47FC7A95800E911EB1CF97
:103E6000A8014419510947FC539594012F5F3F4F16
:103E70000519110957FC1395BC016F5F7F4F800F27
:103E8000911F840E951E9DCF9401250D311D57FC69
:103E90003A950419110947FC1395BC016F5F7F4FD8
:103EA000800F911F8ECFF50120813181820F931FEA
:103EB000808391834ACEF301F7CFF50120813181D0
:103EC000281B390B2083318340CEF301F7CF0895AF
:103ED00090E080E00895CF92DF92EF92FF920F93EF
:103EE0001F93CF93DF93CDB7DEB76097CDBFDEBF13
:103EF00088E10E94180E811104C061E088E10E94EF
:103F0000D40D6091792E70917A2E8091772E9091B8
:103F1000782E0E94031A8EE00E9449118E70E0E113
:103F2000FE2E8E010F5F1F4F882309F4E6C08250DA
:103F30008D30B0F4E82FF0E0E056F04E0C940256CD
:103F4000AD1FB01FB51FB01FB71FB01FBB1FB01FE5
:103F5000BD1FB01FBF1FB01FBF1F80E20E946411B2
:103F60008EE00E9449118E70DFCF80E4F7CF80E0B1
:103F70000E948312F5CF81E0FBCF82E0F9CF8091E0
:103F80007B2E0E94461180EB0E94790C80E00E94FB
:103F9000790CD82E80917B2E0E9443118D2D807C30
:103FA000F9F22D2D2074E22EF8012F2D11922A9571
:103FB000E9F78D2D8770863008F08EC08F83809151
:103FC0007B2E0E94461184E9E11080E90E94790C61
:103FD00080E00E94790C90E0B0E0A0E063E0880F00
:103FE000991FAA1FBB1F6A95D1F789839A83AB8358
:103FF000BC8380E00E94790CD82E90E0B0E0A0E075
:1040000075E0B695A795979587957A95D1F74981EB
:104010005A816B817C81842B952BA62BB72B8983AE
:104020009A83AB83BC83D4FA882780F98E83D3FA32
:10403000882780F98D8380E00E94790C382F8D814C
:104040008823B9F089819A81AB81BC8142E0880FD5
:10405000991FAA1FBB1F4A95D1F72D2D2370822BC4
:10406000BA2FA92F982F8827832B89839A83AB8314
:10407000BC8380E00E94790C282F8D81882369F011
:1040800089819A81AB81BC81BA2FA92F982F88276B
:10409000822B89839A83AB83BC8380E00E94790C56
:1040A000982F9F7098879D81992321F086FB882700
:1040B00080F98E836801C601801B910BEFEFCE1A49
:1040C000DE0A28852817190649F044F080E00E948E
:1040D000790CF6018783EFCF865070CF80917B2ECD
:1040E0000E94431182E0E11081E00E946411B80156
:1040F0008EE79EE20E94CB1233CF8091772E909173
:10410000782E0E945A196096CDBFDEBFDF91CF9105
:104110001F910F91FF90EF90DF90CF900895CF9275
:10412000DF92EF92FF92C090E728D090E828E090CD
:10413000E928F090EA2820E6C20E2AEED21EE11C01
:10414000F11C0E94970EA7019601261B370B480B06
:10415000590BCA01B90128EE33E040E050E00E945B
:10416000C155C901FF90EF90DF90CF9008950E9454
:10417000970E6093E7287093E8288093E92890933E
:10418000EA280895DC01ED91FC910488F589E02D81
:1041900023E030E00994DC01ED91FC910484F58585
:1041A000E02D0994FF920F931F93CF93DF93EC01BF
:1041B0008B01F42E8EA1882341F0E881F9810084DF
:1041C000F185E02D60E0CE0109950115110579F129
:1041D000F89470E060E0CE010E94C41B8FE090E094
:1041E0000197F1F7CE010E94CB208BE190E001977F
:1041F000F1F7E881F9810284F385E02DCE0109957C
:104200008C01FF2041F0E881F9810084F185E02DE7
:1042100061E0CE01099578948BED90E00197F1F77C
:10422000C801DF91CF911F910F91FF900895F894ED
:1042300070E060E0CE010E94C41B8BEE90E001971D
:10424000F1F7CE010E94CB20FF2041F0E881F981F7
:104250000084F185E02D61E0CE010995789483E238
:1042600090E0DCCFCF93DF93EC018EA1882341F067
:10427000E881F9810084F185E02D60E0CE010995A7
:1042800070E060E0CE010E94C41B8BE797E00197CD
:10429000F1F7F894CE010E94CB2083E191E00197E1
:1042A000F1F7E881F9810284F385E02DCE010995CB
:1042B0009C017894E3E6F6E03197F1F781E090E035
:1042C000232B11F490E080E0DF91CF910895CF92FD
:1042D000DF92EF92FF92DC01C12CE2E1DE2EEAE7F1
:1042E000EE2EF12C90E04C155D056E057F0540F437
:1042F000F694E794D794C7949F5F9630A1F797E020
:10430000246011962C931197892F8095E82FE170E6
:10431000F0E084E0EE0FFF1F8A95E1F791629E2B9B
:104320009C93FF90EF90DF90CF900895CF92DF9213
:10433000FF920F931F93CF93DF9300D0CDB7DEB7DB
:104340008C01F42E6901683109F442C078F46431BB
:10435000F9F06731A1F080E00F900F90DF91CF91DD
:104360001F910F91FF90DF90CF900895693109F46C
:1043700060C0603281F76AE40E94301327C0FF20DA
:1043800029F1D6018D916D010E94790CFA94F7CF35
:10439000FC012081318184859585A685B785892B8F
:1043A0008A2B8B2B51F4F90180859185A285B385E9
:1043B000F80184879587A687B787D90111964C9114
:1043C00069E4C8010E9430130E94600D81E0C4CFEF
:1043D000DC01ED91FC91E485E15020E0E33020F434
:1043E000F0E0E259F9402081F80144855585668561
:1043F0007785CE0101960E94672169817A8188E3E1
:104400009EE20E94031AD801ED91FC91408169E47B
:10441000C8010E943013F801A081B181C284D38405
:1044200030E020E012964C916CE2C801F60109954B
:10443000CDCFFC01A081B181C284D38430E020E0E3
:1044400013964C916CE2F6010995D801ED91FC911F
:10445000418169E4C8010E94301388E39EE20E9412
:104460005A19B4CF8F929F92AF92BF92CF92DF92A0
:10447000EF92FF920F931F93CF93DF93CDB7DEB7E9
:104480002A97CDBFDEBF7C016B018AE0EEE5F6EF37
:10449000DE01119601900D928A95E1F7F701808077
:1044A00091808E010F5F1F4F5E01FBE0AF0EB11CCC
:1044B000F80161918F0140E0C4010E94E41BF80102
:1044C000319780830A151B0599F768E070E0CE01EB
:1044D00002960E948C0C9A8589132AC0F70180816C
:1044E00091818093C72B9093C82B88E0F601A9ECAB
:1044F000BBE201900D928A95E1F789E0FE013296C8
:10450000A1EDBBE201900D928A95E1F790E080E089
:104510002A96CDBFDEBFDF91CF911F910F91FF9003
:10452000EF90DF90CF90BF90AF909F908F900895C5
:1045300083E090E0EDCF2F923F924F925F926F9287
:104540007F928F929F92AF92BF92CF92DF92EF9223
:10455000FF920F931F93CF93DF93D82FC92F8B0117
:104560000E94DB4E24E630E040E050E00E94C1555E
:1045700049019B01AC0160E876E988E990E00E947E
:104580009D556B017C01F80180829182ED2FFC2FFB
:104590002191822F022E000C990BC0970A97C0F32D
:1045A0002E3239F51F0180E8882E86E9982E88E999
:1045B000A82EB12C9AE0492E512C612C712CF101BE
:1045C000C1911F010C2E000CDD0BE097CA30D10504
:1045D00080F4C501B401A30192010E94C1554901B3
:1045E0005A01DE010E940F56C60ED71EE81EF91EA4
:1045F000E6CFA5E0B0E0A70196010E9452556F5F9B
:104600007F4F8F4F9F4F23E030E040E050E00E940B
:10461000C155F80122833383448355831682DF9189
:10462000CF911F910F91FF90EF90DF90CF90BF90AF
:10463000AF909F908F907F906F905F904F903F9042
:104640002F9008951F93CF93DF93EC0118811D32B3
:1046500009F42196CE010E94DB4E9B01AC01A4E639
:10466000B0E00E945255AB01BC01FE012991822F9E
:10467000022E000C990BC0970A97B8F32E3231F531
:104680008181082E000C990BC0978A309105F0F4B7
:10469000AAE0A89F9001A99F300D1124C901330FF2
:1046A000AA0BBB0B480F591F6A1F7B1F8281082E64
:1046B000000C990BC0978A30910540F4092E000C2C
:1046C000AA0BBB0B480F591F6A1F7B1F1D3239F401
:1046D00070956095509541955F4F6F4F7F4FCB011F
:1046E000BA01DF91CF911F9108950E94CB5AFB012F
:1046F00001900020E9F73197AF01461B570BDC0111
:10470000ED91FC910280F381E02D0994CF93DF932A
:10471000BC018BE99CE20E94A30EEC0167E379EFF8
:104720008BE99CE20E9477238C0F9D1FDF91CF9134
:104730000895CF93DF93BC018BE99CE20E94B10EF8
:10474000EC0167E379EF8BE99CE20E9477238C0F01
:104750009D1FDF91CF9108958F929F92AF92BF924C
:10476000EF92FF920F931F93CF93DF93CDB7DEB7F6
:10477000A197CDBFDEBF7C01FA01CB0119A2223087
:1047800008F42AE08E010F5D1F4F822E912CB12C70
:10479000A12CBF01A50194010E94C155F901CA01D4
:1047A0006A30F4F4605DD8016E938D01232B242BC5
:1047B000252B79F790E080E0109721F0BD01C7012B
:1047C0000E947723A196CDBFDEBFDF91CF911F91CD
:1047D0000F91FF90EF90BF90AF909F908F900895B2
:1047E000695CE1CF009729F0BC0182EA9DE20C945C
:1047F000772390E080E008952F923F924F925F924E
:104800006F927F928F929F92AF92BF92CF92DF92E0
:10481000EF92FF921F93CF93DF93EC016A017B012C
:10482000722EAB019601CB01B6010E9494586AE347
:1048300079EF811126C046015701E894B7F82FEFB0
:104840003FEF4FE75FE7C501B4010E949458811123
:104850000CC02FEF3FEF4FE75FE7C501B4010E94A7
:104860002E546EE379EF181664F02FEF3FEF4FE709
:104870005FE4C701B6010E9449581816B4F462E417
:1048800079EFCE01DF91CF911F91FF90EF90DF90F4
:10489000CF90BF90AF909F908F907F906F905F90E0
:1048A0004F903F902F900C9477232FEF3FEF4FE7DF
:1048B0005FECC701B6010E942E5487FDE0CF20E0D7
:1048C00030E0A901C701B6010E942E54312C212CE1
:1048D00087FF0DC0E881F9810190F081E02D6DE244
:1048E000CE0109951C01F7FAF094F7F8F09410E066
:1048F00060E070E080E09FE3711641F020E030E07E
:1049000040E251E40E9462571F5FF6CFA701960173
:104910000E94F1562B013C010E94DB574B015C01C8
:104920002AE0BC01A401CE010E94AC237C01E20C70
:10493000F31C1123C9F1C501B4010E9433549B013A
:10494000AC01C301B2010E94F0564B015C016DE065
:104950007AEFCE010E947723E80EF91E115020F164
:1049600020E030E040E251E4C501B4010E949454DB
:104970002B013C010E94DB574B01B12CA12C2AE0FA
:10498000B501A401CE010E94AC23E80EF91EC501B9
:10499000B4010E9433549B01AC01C301B2010E94D7
:1049A000F0564B015C01DACFC701DF91CF911F9127
:1049B000FF90EF90DF90CF90BF90AF909F908F903F
:1049C0007F906F905F904F903F902F9008950F933E
:1049D0001F93CF93DF938C01D0E0C0E06115710588
:1049E00019F00E947723EC0167E379EFC8010E9478
:1049F00077238C0F9D1FDF91CF911F910F91089509
:104A00000F931F93CF93DF93EC01888199810097D7
:104A100059F02A813B812617370730F081E0DF917A
:104A2000CF911F910F9108958B016F5F7F4F0E946F
:104A30000E5A009759F0888399830A831B832C812F
:104A40003D81232B59F7FC011082E8CF80E0E7CFAE
:104A5000EF92FF920F931F93CF93DF936115710530
:104A600041F480E0DF91CF911F910F91FF90EF9083
:104A7000089541155105B1F07B01EC010C811D81B8
:104A8000040F151FB8010E940025882351F32881C7
:104A900039818C819D81B701820F931F0E94E95A51
:104AA0000C831D8381E0DECFCF93DF93EC018881FF
:104AB0009981009711F00E948559188219821C82F1
:104AC0001D821A821B82DF91CF910895EF92FF928F
:104AD0000F931F93CF93DF938C017B01EB01099020
:104AE0000020E9F72197C61BD70BBE010E940025C5
:104AF000811109C0C801DF91CF911F910F91FF90E3
:104B0000EF900C945425F801C483D583B7018081BC
:104B10009181DF91CF911F910F91FF90EF900C94B5
:104B2000E95A0F931F93CF93DF93CDB7DEB7A197C9
:104B3000CDBFDEBF8C01CB01BA01F801108211821A
:104B400012821382148215822AE0AE014F5F5F4FFA
:104B50000E94224FBE016F5F7F4FC8010E946625F1
:104B6000A196CDBFDEBFDF91CF911F910F91089528
:104B70000F931F93CF93DF93CDB7DEB72997CDBFA8
:104B8000DEBF8C01862FF8011082118212821382FF
:104B9000148215824AE0BE016F5F7F4F90E00E9451
:104BA0004F4FBE016F5F7F4FC8010E946625299657
:104BB000CDBFDEBFDF91CF911F910F9108950F936D
:104BC0001F93CF93DF93CDB7DEB76197CDBFDEBF25
:104BD0008C01CB01F801108211821282138214829F
:104BE000158250E0BE016F5F7F4F0E94444FBE01AF
:104BF0006F5F7F4FC8010E9466256196CDBFDEBF03
:104C0000DF91CF911F910F910895CF93DF93EC0126
:104C1000FB0101900020E9F73197AF01461B570BCC
:104C20000E942825811103C0CE010E945425CE0187
:104C3000DF91CF910895CF93DF93EC01FB01448185
:104C40005581608171810E942825811103C0CE01A8
:104C50000E945425CE01DF91CF910895EF92FF92EB
:104C60000F931F93CF93DF93EC017B01188219827E
:104C70001A821B821C821D82FB0101900020E9F731
:104C800031978F01061B170BB8010E940025811177
:104C900009C0CE01DF91CF911F910F91FF90EF904E
:104CA0000C9454250C831D83B70188819981DF9171
:104CB000CF911F910F91FF90EF900C94E95AFC0156
:104CC000808191810C948559CF92DF92EF92FF926F
:104CD000CF93DF93CDB7DEB72C97CDBFDEBF81E199
:104CE0000E94180E81111EC048E651E060E070E09D
:104CF00082E798E20E94541C882351F00E94970E8C
:104D000060935F2B7093602B8093612B9093622B49
:104D10002C96CDBFDEBFDF91CF91FF90EF90DF905B
:104D2000CF900895C0905F2BD090602BE090612BC6
:104D3000F090622B88E7C80ED11CE11CF11C0E9488
:104D4000970E6C157D058E059F0510F38091012847
:104D5000811103C00E94D71CD1CF8091AC2B9091C0
:104D6000AD2B8A30910509F461C034F48930910586
:104D700009F455C0019655C08B30910509F4A3C0C4
:104D80008C309105B9F70E94970EAB01BC01CE01A2
:104D900001960E94912566E479EFCE0107960E9464
:104DA0002E26BE016F5F7F4FCE0107960E941B2605
:104DB00068E479EF0E940526BC018BE99CE20E9421
:104DC000A30ECE0107960E945F26CE0101960E9497
:104DD0005F266091512BCE0101960E94B82564E6B2
:104DE00079EFCE0107960E942E26BE016F5F7F4F9E
:104DF000CE0107960E941B260E948623CE010796AD
:104E00000E945F26CE0101960E945F268091512B61
:104E10008F5F8B3008F0A5C08093512B9BCF81E032
:104E200090E08093AC2B9093AD2B94CF0E94970E83
:104E3000AB01BC01CE0101960E94912566E479EF99
:104E4000CE0107960E942E26BE016F5F7F4FCE01D6
:104E500007960E941B2668E479EF0E940526BC0194
:104E60008BE99CE20E94A30ECE0107960E945F266A
:104E7000CE0101960E945F2660910228CE01019624
:104E80000E94B8256AE479EFCE0107960E942E268B
:104E9000BE016F5F7F4FCE0107960E941B260E94C6
:104EA0008623CE0107960E945F26CE0101960E94BE
:104EB0005F26809102288F5F8B3018F48093022840
:104EC00049CF81E0FBCF0E94970EAB01BC01CE0120
:104ED00001960E94912566E479EFCE0107960E9423
:104EE0002E26BE016F5F7F4FCE0107960E941B26C4
:104EF00068E479EF0E940526BC018BE99CE20E94E0
:104F0000A30ECE0107960E945F26CE0101960E9455
:104F10005F266091AE2BCE0101960E94B82566E512
:104F200079EFCE0107960E942E26BE016F5F7F4F5C
:104F3000CE0107960E941B260E948623CE0107966B
:104F40000E945F26CE0101960E945F268091AE2BC3
:104F50008F5F823018F48093AE2BFCCE1092AE2B74
:104F6000F9CE1092512BF6CE0F931F93CF93DF9370
:104F7000CDB7DEB76C97CDBFDEBF8C010E94970E18
:104F8000AB01BC01CE0141960E94912566E479EF08
:104F9000CE0101960E942E26BE016F5E7F4FCE018C
:104FA00001960E941B2668E479EF0E940526BC0149
:104FB0008BE99CE20E94A30ECE0101960E945F261F
:104FC000CE0141960E945F2640E1B801CE01419694
:104FD0000E94DF2564E779EFCE0101960E942E261C
:104FE000BE016F5E7F4FCE0101960E941B260E947C
:104FF0008623CE0101960E945F26CE0141960E9433
:105000005F260093522B1093532B80EF96E0A0E085
:10501000B0E08093622890936328A0936428B093B3
:10502000652882E08093692800936A2810936B2892
:1050300080E1E2E6F8E2DE01119601900D928A9598
:10504000E1F71F81133008F010E0F8946091792E99
:1050500070917A2E8091772E9091782E0E94031A6B
:10506000E12FF0E0E958F14D03AD002309F44CC005
:1050700013AE612FCE0101960E947F118091772E91
:105080009091782E0E945A197894002309F449C00F
:1050900080915E2890915F28A0916028B09161284E
:1050A0000196A11DB11D80935E2890935F28A09367
:1050B0006028B09361286CE979EF88EE9BE20E944A
:1050C000E95A6AE379EF8FED9BE20E94E95A6AE3BD
:1050D00079EF8AED9BE20E94E95A6AE379EF85E471
:1050E00099E20E94E95A6AE379EF8CE399E20E941F
:1050F000E95A81E0809300286C96CDBFDEBFDF9136
:10510000CF911F910F9108952AE0129FC0011124A1
:10511000BE016F5F7F4F8C56914D0E94CB12082FBE
:10512000ADCF0E94970EAB01BC01CE0147960E9405
:10513000912566E479EFCE0141960E942E26BE01AC
:10514000695E7F4FCE0141960E941B2668E479EF8D
:105150000E940526BC018BE99CE20E94A30ECE01B1
:1051600041960E945F26CE0147960E945F26698184
:105170007A816F5776408BE99CE20E94E7249BCFAF
:105180000F931F93CF93DF93CDB7DEB76C97CDBF4F
:10519000DEBF20E1FC01DE01119601900D922A95FF
:1051A000E1F7FC0180819181A281B381815F96400A
:1051B000A109B1098F309105A105B10508F0D8C04A
:1051C000FC01EB51F74D0C940256F428EB29072A09
:1051D0005E2AC22ADD2AB829B829B829B829B829EF
:1051E000B829B829B829F82A0E94970EAB01BC014A
:1051F000CE0141960E94912566E479EFCE01479653
:105200000E942E26BE016F5E7F4FCE0147960E9400
:105210001B2668E479EF0E940526BC018BE99CE21D
:105220000E94A30ECE0147960E945F26CE014196B2
:105230000E945F2609851A8540E1B801CE0141969A
:105240000E94DF2567EA79EFCE0147960E942E265D
:10525000BE016F5E7F4FCE0147960E941B260E94C3
:105260008623CE0147960E945F26CE0141960E947A
:105270005F268091522B9091532B0817190709F044
:105280007FC08B8580934E2981E080935D281092AA
:1052900000280E94970EAB01BC01CE0141960E94EE
:1052A000912566E479EFCE0147960E942E26BE0135
:1052B0006F5E7F4FCE0147960E941B2668E479EF10
:1052C0000E940526BC018BE99CE20E94A30ECE0140
:1052D00047960E945F26CE0141960E945F2660910C
:1052E0004E29CE0141960E94B8256AEC79EFCE0195
:1052F00047960E942E26BE016F5E7F4FCE014796D5
:105300000E941B260E948623CE0147960E945F269C
:10531000CE0141960E945F260E94970EAB01BC0110
:10532000CE0141960E94912566E479EFCE01479621
:105330000E942E26BE016F5E7F4FCE0147960E94CF
:105340001B2668E479EF0E940526BC018BE99CE2EC
:105350000E94A30ECE0147960E945F26CE01419681
:105360000E945F266AED79EF8BE99CE20E94E724B8
:105370006C96CDBFDEBFDF91CF911F910F91089545
:1053800010925D280E94970EAB01BC01CE014196A0
:105390000E94912566E479EFCE0147960E942E2661
:1053A000BE016F5E7F4FCE0147960E941B2668E4C8
:1053B00079EF0E940526BC018BE99CE20E94A30EB6
:1053C000CE0147960E945F26CE0141960E945F263D
:1053D00065EF79EFC9CF80915D28882349F210925B
:1053E0004F2B1092502BFE013996A8EEBBE29E0186
:1053F0002F5E3F4FE217F30739F488E090E0809387
:105400004F2B9093502BB4CF81918D93F3CF8091FC
:105410005D288E010F5E1F4F8823A1F010924F2B45
:105420001092502BFE013996A0EFBBE2E017F10776
:1054300019F081918D93FACF88E090E080934F2B03
:105440009093502B0E94970EAB01BC01C8010E94A3
:10545000912566E479EFCE0147960E942E26B80189
:10546000CE0147960E941B2668E479EF0E9405262C
:10547000BC018BE99CE20E94A30ECE0147960E94DC
:105480005F26C8010E945F2668EE7BE2C8010E9489
:105490002E266FE07AEFCE0147960E942E26B801A5
:1054A000CE0147960E941B260E948623CE01479676
:1054B0000E945F26C8010E945F265ACF80915D2816
:1054C0008823F1F089858093DA2B8A858093DB2B02
:1054D0008B858093DC2B8C858093DD2B8D85809351
:1054E0003C298E8580933D298F8580933E2988892C
:1054F00080933F2984E090E080934F2B9093502B32
:105500000E94970EAB01BC01CE0141960E949125ED
:1055100066E479EFCE0147960E942E26BE016F5EAB
:105520007F4FCE0147960E941B2668E479EF0E94C8
:105530000526BC018BE99CE20E94A30ECE01479692
:105540000E945F26CE0141960E945F266AED7BE2B3
:10555000CE0141960E942E2666E27AEFCE01479652
:105560000E942E26BE016F5E7F4FCE0147960E949D
:105570001B260E948623CE0147960E945F26CE01FD
:10558000419699CF80915D28882309F4F1CE8091CE
:1055900000288111EDCE10924F2B1092502BFE015E
:1055A0003996AFEDBBE29E012F5E3F4F2E173F07AE
:1055B00009F423CF81918D93F9CF80915D288823C1
:1055C00009F4D6CE809100288111D2CE10924F2BB3
:1055D0001092502BFE013996A5E4B9E29E012F5E90
:1055E0003F4FE217F30709F408CF81918D93F9CF6C
:1055F00009851A85980184E0369527958A95E1F703
:10560000F901FF27EE0FFF1FE15BF64D608171810D
:105610002295207F802F821B282FAB0102C0569538
:1056200047958A95E2F740FDA3CE81E090E0A0E0A7
:10563000B0E004C0880F991FAA1FBB1F2A95D2F79C
:10564000862B972B808391830E94970EAB01BC0120
:10565000CE0141960E94912566E479EFCE014796EE
:105660000E942E26BE016F5E7F4FCE0147960E949C
:105670001B2668E479EF0E940526BC018BE99CE2B9
:105680000E94A30ECE0147960E945F26CE0141964E
:105690000E945F2640E1B801CE0141960E94DF25BD
:1056A00068E37AEF5BCFCF93DF93CDB7DEB72C976C
:1056B000CDBFDEBF0E94970EAB01BC01CE010796A5
:1056C0000E94912566E479EFCE0101960E942E2674
:1056D000BE01695F7F4FCE0101960E941B2668E4E0
:1056E00079EF0E940526BC018BE99CE20E94A30E83
:1056F000CE0101960E945F26CE0107960E945F268A
:1057000065E57AEF8BE99CE20E94E72460E08BE09C
:105710000E94D40D68EE73E080E090E00E94670E76
:1057200061E08BE00E94D40D2C96CDBFDEBFDF91EF
:10573000CF9108950C9485590F931F93CF93DF93C6
:10574000EC018B0188819981009711F00E948559A5
:105750008FEF9FEF011558E0150730F4C80124E0E2
:10576000880F991F2A95E1F70E94E9589801FC01DA
:1057700048E02150310937FD12C010821182128297
:1057800013821482158216821782BF01685F7F4FD1
:10579000DB01542F1D925A95E9F77096EACF888362
:1057A000998321E0009709F420E0892B11F410E09F
:1057B00000E00A831B831C821D821E821F821886C2
:1057C0001986822FDF91CF911F910F9108952F920B
:1057D0003F924F925F926F927F928F929F92AF9281
:1057E000BF92CF92DF92EF92FF920F931F93CF93CE
:1057F000DF93CDB7DEB7E197CDBFDEBF0E94600D6E
:105800000E94970EAB01BC01CE0107960E94912524
:1058100066E479EFCE0101960E942E26BE01695FF3
:105820007F4FCE0101960E941B2668E479EF0E940B
:105830000526BC018BE99CE20E94A30ECE010196D5
:105840000E945F26CE0107960E945F266DE67AEFE2
:105850008BE99CE20E94E72410E8E12E1FE4F12E80
:1058600002E110E0EBA2FCA20DA31EA300E410E0F5
:1058700020E030E00B8B1C8B2D8B3E8B88248A9490
:10588000982C540116E0E12EF12C00E010E0EB8E94
:10589000FC8E0D8F1E8F99E1C92ED12CE12CF12C9D
:1058A00029E1422E512C612C712C0BA11CA12DA1A0
:1058B0003EA1005B1C432F4F3F4F0FA318A729A702
:1058C0003AA72B8D3C8D4D8D5E8D6FA178A589A556
:1058D0009AA50E949D5520E032E14AE750E0261B40
:1058E000370B480B590B2F8F38A349A35AA3281500
:1058F00039054A055B0508F476C2FB89EC891D89E8
:105900000E898F8E98A2A9A2BAA22B8D3C8D4D8DA7
:105910005E8D2F5F3F4F4F4F5F4F2B8B3C8B4D8BDF
:105920005E8B8FA098A4A9A4BAA4860E971EA81E69
:10593000B91E32E1931A3AE7A30AB1084F8D58A174
:1059400069A17AA184169506A606B70608F452C284
:10595000FB8BEC8B1D8B0E8B4A015B0151E0C51A52
:10596000D108E108F10860E072E18AE790E02BA13C
:105970003CA14DA15EA10E94C1552B8F3C8F4D8F44
:105980005E8F0BA11CA12DA13EA10055134C210936
:1059900031090BA31CA32DA33EA314E0C116D1040F
:1059A000E104F10409F081CFC301B2016F5F7F4FC1
:1059B0008F4F9F4F23E030E040E050E00E94C15500
:1059C0002B8F3C8F4D8F5E8FD301C2010197A109B0
:1059D000B1097C018D01E21AF30A040B150BEBA649
:1059E000FCA60DA71EA716950795F794E794EFA2BE
:1059F000F8A609A71AA7FFA0FBA201E00FA71F2D79
:105A0000123008F41FA62B893C894D895E89C30199
:105A1000B2010E949D559B01AC01A0E5B3EC0E9430
:105A200052556B017C01C11422E1D2062AE7E2063D
:105A3000F10408F0E2C1812CF2E19F2EFAE7AF2ECB
:105A4000B12C8C189D08AE08BF088EED8D871E8680
:105A50001F86188A40917C2E4F8F4F3F09F421C238
:105A600062E0842F0E945B0D61E080917B2E0E949A
:105A70005B0D61E080917B2E0E94390E6091792E42
:105A800070917A2E8091772E9091782E0E94031A31
:105A900080917B2E0E94461180EC0E94790C8091AF
:105AA0007B2E0E9443118091772E9091782E0E9438
:105AB0005A1962E070E080E090E00E94670E609109
:105AC000792E70917A2E8091772E9091782E0E9467
:105AD000031A65E58AE20E9415128AE20E944911C2
:105AE000853551F46AEA8AE20E9415128AE20E9420
:105AF000491191E08A3A09F090E081E09827492E17
:105B0000512C8091772E9091782E0E945A19C501C0
:105B1000B40120E432E44FE050E00E94175619012E
:105B200048AB59AB3B014C01C701B60128EE33E04D
:105B300040E050E00E94175659016A017B018C0138
:105B4000910148A959A9B301C4010E94BE5619F098
:105B500010F0689441F8ABA43FA1A31A84E090E050
:105B600039F058E090E080E05A1510F488E090E0B9
:105B70006BA161114AC180612B8D223008F48064D1
:105B80003B8D263008F035E0BB24BA94B30E09F003
:105B900042C19260B21608F098602A2C312CBFA145
:105BA0006B2E712C9101260D371DEB8DFC8D2E1760
:105BB0003F0714F0892B11F0689442F860E470E01C
:105BC0008EE79EE20E949C2B811102C0689451F8DE
:105BD00060E170E084E99EE20E949C2B811102C08A
:105BE000689452F870E060E08EE99EE20E949C2B7F
:105BF000811102C0689453F870E060E088EA9EE288
:105C00000E949C2B811102C0689454F811E01093FB
:105C1000B22E1093B32E1093B42E4114510409F0F8
:105C200043C19B886091792E70917A2E8091772E56
:105C30009091782E0E94031A80917B2E0E9446112B
:105C400082E00E94790C88E20E94790C8B8D815051
:105C50000E94790CFFA4EF2CF12CEBA6FCA69FEF81
:105C60009A0D9068970146E0220F331F4A95E1F79D
:105C7000922B93012150310953E0220F331F5A9583
:105C8000E1F7892F822B0E94790C2B2D2150330BA9
:105C9000C90166E0880F991F6A95E1F79B899150C9
:105CA000892B0E94790C8FE10E94790C80917B2EC8
:105CB0000E94431160E08CE00E94151260E08DE0CC
:105CC0000E94151210937D2E64E080E60E9415124A
:105CD00060E080E70E94151240E26EEF70E080E025
